:10000E006F70006F706D70006F7074003033303031
:04001E002E30300050
:1006BA00042E00000000042400000000042A0000A8
:0D06CA000000012200C100012100012302F7
:100716005389F0438901758AE0758CB1C28DD2A9DF
:03072600D28C2250
:0C074A00C2AC8F993099FDC299D2AC224C
:0D073C007F46900000E4F0A3DFFCE4F5210F
:01074900228D
:0B0762008E288F29E529452870FA2217
:03000B0002069456
:10069400C0E0C0D0C28C758AE0758CB1D3E52994D2
:1006A40000E52894004008E529152970021528D290
:0606B4008CD0D0D0E03232
:030023000206339F
:10063300C0E0C083C082C0D030981CC2987400252B
:1006430021F582E43400F583E599F00521E521C322
:1006530094464003752100309902C299D0D0D082CC
:05066300D083D0E0325D
:100668008B0F8A10891112073CAB0FAA10A911121F
:10067800018560130511E5117002051014F91201C6
:0C06880085FF12074A80E27F0D02074A3E
:10053700C2AC7512FF75130075140E7B017A007932
:1005470000120435E94A4B60597512FF751300759F
:1005570014117B017A007900120435E94A4B6005D2
:10056700120756803D7512FF7513007514167B012F
:100577007A007900120435E94A4B6026900003E0BF
:1005870024CD600C24FE600D24D4600E242F800F30
:10059700752303800D752305800875230A8003756D
:0705A7002302D2AC7F002209
:1007290012073C120668AF05AE04120762120537BC
:030739007F00221C
:1004B7001205F28F2D8E2C8D2B8C2AC3E52D9527B7
:1004C700F52DE52C9526F52CE52B9525F52BE52A1D
:1004D7009524F52AE4FFFEFDFCAB2DAA2CA92BA839
:1004E7002AD31201BE403DAF2DAE2CAD2BAC2AEC6A
:1004F7001200C6E4FBFA79B0784112002912010410
:10050700E48F2D8E2CF52BF52A7FA07E867D01FCAE
:10051700AB2DAA2CA92BA82AD31201BE4003D200C7
:1005270022C20022E4F52DF52CF52BF52AD2002264
:0C0756001205F28F278E268D258C2422A0
:1006DD00E4FDFCC3ED9FEC9E5015E4FBFA0BBB0053
:0F06ED00010AEB647B4A70F50DBD00010C80E43F
:0106FC0022DB
:1002B5001207161206FD120756D2AFE4FD7F327EF5
:1002C500001207620DBD0AF5750830750933750A08
:1002D50030750B30750D30750E30750C2EC2AF12A2
:1002E50004B7D2AF30000B7BFF7A00791A1206688B
:1002F50080EBE47B107A27F9F8AF2DAE2CAD2BAC53
:100305002A1205AEEF2430F50AE47B107A27F9F8B6
:10031500AF2DAE2CAD2BAC2A1205AEAC00AD01AEA7
:1003250002AF03E47BE87A03F9F81205AEEF243057
:10033500F50BE47BE87A03F9F8AF2DAE2CAD2BACC9
:100345002A1205AEAC00AD01AE02AF03E47B64FA40
:10035500F9F81205AEEF2430F50DE47B64FAF9F8EF
:10036500AF2DAE2CAD2BAC2A1205AEAC00AD01AE57
:1003750002AF03E47B0AFAF9F81205AEEF2430F573
:100385000E7B007A0079087D327C00120729E5236F
:1003950024FFFFE434FFFE7C037DE812019E120674
:0403A500DD0202E291
:03000300000022D8
:1005F200D2A1120003C2A07F007E007D007C00D247
:10060200AF20A1FDC2AFE4FBD2A078011201D4C297
:10061200A030A10DEF2401FFE43EFEE43DFDE43CE9
:10062200FC0BBB18E3D2A0ED6480FD120003C2A054
:0106320022A5
:0506D700011B00C10140
:1006FD0053877F75985053890F438920758BFD75EE
:09070D008DFDC2ABD28ED2AC22EC
:1000260002017AEC5D046005E85904700302017070
:1000360012013B580460F6EC4860F2EC7004FDFED9
:10004600FF22C860DB2481C85009C39860025006AD
:100056000201779850CAF582E9294B4A7005AB82AE
:1000660002016675F0007C1A7880C3EF9BEE9AED6C
:1000760099400DC3EF9BFFEE9AFEED99FDE842F025
:10008600DC23ACF0D0E0FFD0E0FED0E0FDAB822078
:10009600E7101BEB60BAEC2CFCEF33FFEE33FEED02
:1000A60033FD020152E803F830E705C0F075F000B1
:1000B600EF2FFFEE33FEED33FD40B830E7C280AAE6
:1000C60075F020800E75F010800575F0087D007EB5
:1000D600007F003392D530D5031201B0EC334010C7
:1000E600EF33FFEE33FEED33FDEC33FCD5F0ED22BE
:0E00F600E5F0247EA2D513CC92E7CDCEFF22FA
:10010400EDD2E7CD33EC3392D524814006E4FFFEF3
:10011400FDFC22FCE4CFCECDCC24E0501174FF8052
:10012400EDC3CC13CCCD13CDCE13CECF13CF0470EF
:07013400F030D5DE0201B03E
:10013B00E9D2E7C933E833F892D5EDD2E7CD33EC0A
:07014B0033FC5002B2D52283
:10015200EC30E7100FBF000C0EBE00080DBD00040E
:100162000BEB6014A2D5EB13FCED92E7FD2274FFBA
:10017200FCFDFEFF22E480F8A2D574FF13FC7D8013
:03018200E480EF27
:030000000203A94F
:0C03A900787FE4F6D8FD7581310203F086
:10018500BB010689828A83E0225002E722BBFE0278
:09019500E32289828A83E49322AB
:10019E00EF8DF0A4A8F0CF8CF0A428CE8DF0A42E75
:0201AE00FE222F
:1005AE00C2D5E830E70FB2D5E4C39BFBE49AFAE478
:1005BE0099F9E498F8EC30E717B2D51205E4120277
:1005CE0023E4C39BFBE49AFAE499F9E498F88003D8
:1005DE0012022330D50DE4C39FFFE49EFEE49DFD81
:0405EE00E49CFC226B
:0E01B000C3E49FFFE49EFEE49DFDE49CFC2260
:1001BE00EB9FF5F0EA9E42F0E99D42F0EC6480C8B8
:0601CE0064809845F02258
:1001D400E8600FEFC333FFEE33FEED33FDEC33FC89
:0301E400D8F1222D
:100435008B0F8A108911AB12AA13A91412018560BA
:1004450063AB0FAA10A911120185605F851215858E
:1004550013168514178B188A19891AAB15AA16A9AC
:1004650017120185FF6023AB18AA19A91A12018575
:100475006F7017042517F517E43516F51674012561
:100485001AF51AE43519F51980D1AB15AA16A9176D
:100495001201857002800D74012511F511E43510E6
:1004A500F510809DAB0FAA10A911227B007A007967
:0204B500002223
:1003B5000202B5E493A3F8E493A34003F68001F2A7
:1003C50008DFF48029E493A3F85407240CC8C33349
:1003D500C4540F4420C8834004F456800146F6DF18
:1003E500E4800B01020408102040809006BAE47EE8
:1003F500019360BCA3FF543F30E509541FFEE4930D
:10040500A360010ECF54C025E060A840B8E493A3D3
:10041500FAE493A3F8E493A3C8C582C8CAC583CAFE
:10042500F0A3C8C582C8CAC583CADFE9DEE780BEB6
:0106DC00001D
:1001E70075F008758200EF2FFFEE33FECD33CDCCCF
:1001F70033CCC58233C5829BED9AEC99E582984052
:100207000CF582EE9BFEED9AFDEC99FC0FD5F0D62E
:10021700E4CEFBE4CDFAE4CCF9A88222B800C1B958
:100227000059BA002DEC8BF084CFCECDFCE5F0CB96
:10023700F97818EF2FFFEE33FEED33FDEC33FCEBCF
:1002470033FB10D703994004EB99FB0FD8E5E4F98A
:10025700FA227818EF2FFFEE33FEED33FDEC33FC77
:10026700C933C910D7059BE99A4007EC9BFCE99A6B
:10027700F90FD8E0E4C9FAE4CCFB2275F010EF2FB0
:10028700FFEE33FEED33FDCC33CCC833C810D707B0
:100297009BEC9AE899400AED9BFDEC9AFCE899F8EB
:0E02A7000FD5F0DAE4CDFBE4CCFAE4C8F9227E
:00000001FF
