:0E054D0063646400475600A3BF00636E620043
:1004A500041800000000040A000000000410000009
:1004B5000000010900C1000108000117300314FF05
:0204C500054DE3
:10000E005389F0438901758AE0758CB1C28DD2A9EE
:03001E00D28C225F
:0C055B00C2AC8F993099FDC299D2AC223D
:0D053F007F46900000E4F0A3DFFCE4F50827
:01054C00228C
:0B0573008E0E8F0FE50F450E70FA2270
:03000B000204CD1F
:1004CD00C0E0C0D0C28C758AE0758CB1D3E50F94B5
:1004DD0000E50E94004008E50F150F7002150ED2C1
:0604ED008CD0D0D0E032FB
:0300230002044490
:10044400C0E0C083C082C0D030981CC2987400251C
:1004540008F582E43400F583E599F00508E508C35E
:1004640094464003750800309902C299D0D0D082D6
:05047400D083D0E0324E
:100479008B288A29892A12053FAB28AA29A92A1279
:1004890001856013052AE52A7002052914F912016C
:0C04990085FF12055B80E27F0D02055B11
:10036300C2AC752BFF752C05752D517B017A007975
:1003730000120261E94A4B6027752BFF752C057546
:100383002D517B017A0079001202618B148A158941
:10039300167BFF7A057954120479B292D2AC801994
:1003A300752BFF752C05752D577B017A007900128B
:0E03B3000261E94A4B6002B291D2AC7F002297
:10052C0012053F120479AF05AE0412057312036372
:03053C007F00221B
:1002E3001204038F138E128D118C10C3E513950D19
:1002F300F513E512950CF512E511950BF511E510C3
:10030300950AF510E4FFFEFDFCAB13AA12A911A890
:1003130010D31201AC403DAF13AE12AD11AC10ECD3
:100323001200C6E4FBFA79B07841120029120104E5
:10033300E48F138E12F511F5107FA07E867D01FCEC
:10034300AB13AA12A911A810D31201AC4003D20017
:1003530022C20022E4F513F512F511F510D20022A2
:0C0567001204038F0D8E0C8D0B8C0A22E9
:1004F300E4FDFCC3ED9FEC9E5015E4FBFA0BBB003F
:0F050300010AEB647B4A70F50DBD00010C80E42A
:0105120022C6
:1003C10012000E120513D2AFE4FD7F327E0012053A
:1003D100730DBD1EF57521307522367523307524D8
:1003E1003075263075273075252EB290AB14AA15BD
:1003F100A9167D327C0012052C7FD07E071204F3F2
:0204010080E891
:03000300000022D8
:10040300D2A1120003C2A07F007E007D007C00D237
:10041300AF20A1FDC2AFE4FBD2A078011201C2C29A
:10042300A030A10DEF2401FFE43EFEE43DFDE43CDA
:10043300FC0BBB18E3D2A0ED6480FD120003C2A045
:010443002296
:0504C700011C00C10151
:1005130053877F75985053890F438920758BFD75D9
:090523008DFDC2ABD28ED2AC22D8
:1000260002017AEC5D046005E85904700302017070
:1000360012013B580460F6EC4860F2EC7004FDFED9
:10004600FF22C860DB2481C85009C39860025006AD
:100056000201779850CAF582E9294B4A7005AB82AE
:1000660002016675F0007C1A7880C3EF9BEE9AED6C
:1000760099400DC3EF9BFFEE9AFEED99FDE842F025
:10008600DC23ACF0D0E0FFD0E0FED0E0FDAB822078
:10009600E7101BEB60BAEC2CFCEF33FFEE33FEED02
:1000A60033FD020152E803F830E705C0F075F000B1
:1000B600EF2FFFEE33FEED33FD40B830E7C280AAE6
:1000C60075F020800E75F010800575F0087D007EB5
:1000D600007F003392D530D50312019EEC334010D9
:1000E600EF33FFEE33FEED33FDEC33FCD5F0ED22BE
:0E00F600E5F0247EA2D513CC92E7CDCEFF22FA
:10010400EDD2E7CD33EC3392D524814006E4FFFEF3
:10011400FDFC22FCE4CFCECDCC24E0501174FF8052
:10012400EDC3CC13CCCD13CDCE13CECF13CF0470EF
:07013400F030D5DE02019E50
:10013B00E9D2E7C933E833F892D5EDD2E7CD33EC0A
:07014B0033FC5002B2D52283
:10015200EC30E7100FBF000C0EBE00080DBD00040E
:100162000BEB6014A2D5EB13FCED92E7FD2274FFBA
:10017200FCFDFEFF22E480F8A2D574FF13FC7D8013
:03018200E480EF27
:030000000201D525
:0C01D500787FE4F6D8FD75816002021C02
:10018500BB010689828A83E0225002E722BBFE0278
:09019500E32289828A83E49322AB
:0E019E00C3E49FFFE49EFEE49DFDE49CFC2272
:1001AC00EB9FF5F0EA9E42F0E99D42F0EC6480C8CA
:0601BC0064809845F0226A
:1001C200E8600FEFC333FFEE33FEED33FDEC33FC9B
:0301D200D8F1223F
:100261008B288A29892AAB2BAA2CA92D12018560FA
:1002710063AB28AA29A92A120185605F852B2E85E7
:100281002C2F852D308B318A328933AB2EAA2FA9A1
:1002910030120185FF6023AB31AA32A933120185E7
:1002A1006F7017042530F530E4352FF52F740125D3
:1002B10033F533E43532F53280D1AB2EAA2FA93094
:1002C1001201857002800D7401252AF52AE4352971
:1002D100F529809DAB28AA29A92A227B007A0079D9
:0202E1000022F9
:1001E1000203C1E493A3F8E493A34003F68001F270
:1001F10008DFF48029E493A3F85407240CC8C3331F
:10020100C4540F4420C8834004F456800146F6DFED
:10021100E4800B01020408102040809004A5E47ED4
:10022100019360BCA3FF543F30E509541FFEE493E2
:10023100A360010ECF54C025E060A840B8E493A3A9
:10024100FAE493A3F8E493A3C8C582C8CAC583CAD4
:10025100F0A3C8C582C8CAC583CADFE9DEE780BE8C
:0104CC00002F
:00000001FF
